{
  "contractName": "ClassVoting",
  "abi": [
    {
      "constant": true,
      "inputs": [],
      "name": "count",
      "outputs": [
        {
          "name": "",
          "type": "uint256"
        }
      ],
      "payable": false,
      "stateMutability": "view",
      "type": "function"
    },
    {
      "constant": true,
      "inputs": [
        {
          "name": "",
          "type": "uint256"
        }
      ],
      "name": "students",
      "outputs": [
        {
          "name": "id",
          "type": "uint256"
        },
        {
          "name": "name",
          "type": "string"
        },
        {
          "name": "age",
          "type": "uint256"
        }
      ],
      "payable": false,
      "stateMutability": "view",
      "type": "function"
    },
    {
      "constant": true,
      "inputs": [
        {
          "name": "",
          "type": "uint256"
        }
      ],
      "name": "location",
      "outputs": [
        {
          "name": "long",
          "type": "uint256"
        },
        {
          "name": "lat",
          "type": "uint256"
        },
        {
          "name": "name",
          "type": "string"
        }
      ],
      "payable": false,
      "stateMutability": "view",
      "type": "function"
    },
    {
      "inputs": [],
      "payable": false,
      "stateMutability": "nonpayable",
      "type": "constructor"
    },
    {
      "constant": false,
      "inputs": [],
      "name": "implementAddStudent",
      "outputs": [],
      "payable": false,
      "stateMutability": "nonpayable",
      "type": "function"
    },
    {
      "constant": true,
      "inputs": [
        {
          "name": "_id",
          "type": "uint256"
        }
      ],
      "name": "getUser",
      "outputs": [
        {
          "name": "",
          "type": "string"
        },
        {
          "name": "",
          "type": "uint256"
        }
      ],
      "payable": false,
      "stateMutability": "view",
      "type": "function"
    },
    {
      "constant": true,
      "inputs": [],
      "name": "getBalance",
      "outputs": [
        {
          "name": "",
          "type": "uint256"
        }
      ],
      "payable": false,
      "stateMutability": "view",
      "type": "function"
    },
    {
      "constant": false,
      "inputs": [],
      "name": "withdraw",
      "outputs": [],
      "payable": false,
      "stateMutability": "nonpayable",
      "type": "function"
    }
  ],
  "bytecode": "0x608060405234801561001057600080fd5b50610674806100206000396000f3fe608060405234801561001057600080fd5b506004361061009a576000357c0100000000000000000000000000000000000000000000000000000000900480633ccfd60b116100785780633ccfd60b14610164578063b0467deb1461016e578063c9990aa61461020a578063e1fd36171461026f5761009a565b806306661abd1461009f57806306ead22e146100b957806312065fe01461015c575b600080fd5b6100a7610277565b60408051918252519081900360200190f35b6100d6600480360360208110156100cf57600080fd5b503561027d565b6040518084815260200180602001838152602001828103825284818151815260200191508051906020019080838360005b8381101561011f578181015183820152602001610107565b50505050905090810190601f16801561014c5780820380516001836020036101000a031916815260200191505b5094505050505060405180910390f35b6100a761032a565b61016c610344565b005b61018b6004803603602081101561018457600080fd5b5035610374565b6040518080602001838152602001828103825284818151815260200191508051906020019080838360005b838110156101ce5781810151838201526020016101b6565b50505050905090810190601f1680156101fb5780820380516001836020036101000a031916815260200191505b50935050505060405180910390f35b6102276004803603602081101561022057600080fd5b5035610425565b6040518084815260200183815260200180602001828103825283818151815260200191508051906020019080838360008381101561011f578181015183820152602001610107565b61016c6104ce565b60005481565b6003602090815260009182526040918290208054600180830180548651600293821615610100026000190190911692909204601f81018690048602830186019096528582529194929390929083018282801561031a5780601f106102ef5761010080835404028352916020019161031a565b820191906000526020600020905b8154815290600101906020018083116102fd57829003601f168201915b5050505050908060020154905083565b73cfbb8878e8238cc104c1d4e6b0503a53a25ece68315b90565b6040513390303180156108fc02916000818181858888f19350505050158015610371573d6000803e3d6000fd5b50565b60008181526003602090815260408083206002808201546001928301805485519481161561010002600019011692909204601f81018690048602840186019094528383526060959491939092918491908301828280156104155780601f106103ea57610100808354040283529160200191610415565b820191906000526020600020905b8154815290600101906020018083116103f857829003601f168201915b5050505050915091509150915091565b60046020908152600091825260409182902080546001808301546002808501805488519481161561010002600019011691909104601f8101879004870284018701909752868352929590949192918301828280156104c45780601f10610499576101008083540402835291602001916104c4565b820191906000526020600020905b8154815290600101906020018083116104a757829003601f168201915b5050505050905083565b61050e6040805190810160405280600881526020017f73747564656e7431000000000000000000000000000000000000000000000000815250600f610550565b61054e6040805190810160405280600881526020017f73747564656e7432000000000000000000000000000000000000000000000000815250600f610550565b565b60008054600190810180835560408051606081018252828152602080820188815282840188905293865260038152919094208451815591518051929361059e939085019291909101906105b0565b50604082015181600201559050505050565b828054600181600116156101000203166002900490600052602060002090601f016020900481019282601f106105f157805160ff191683800117855561061e565b8280016001018555821561061e579182015b8281111561061e578251825591602001919060010190610603565b5061062a92915061062e565b5090565b61034191905b8082111561062a576000815560010161063456fea165627a7a7230582061cc30801880f40403633b435464969ad882812f5fbd4def08c3eb47a6b05b670029",
  "source": "// SPDX-License-Identifier: MIT\r\npragma solidity >=0.4.22 <0.9.0;\r\n\r\ncontract ClassVoting {\r\n  struct Student {\r\n    uint id;\r\n    string name;\r\n    uint age;\r\n  }\r\n\r\n  struct Location {\r\n    uint long;\r\n    uint lat;\r\n    string  name;\r\n  }\r\n  uint public count;\r\n  uint x;\r\n  uint y;\r\n  mapping(uint => Student) public students;\r\n  mapping(uint => Location) public location;\r\n\r\n  constructor() public {\r\n  }\r\n\r\n  function addStudent(string memory _name, uint _age ) private {\r\n    count++;\r\n    students[count] = Student( count, _name, _age);\r\n  }\r\n\r\n  function implementAddStudent() public {\r\n    addStudent(\"student1\",15);\r\n    addStudent(\"student2\",15);\r\n  }\r\n\r\n  function getUser(uint _id) public view returns (string memory, uint) {\r\n//    Student memory student = students[_id];\r\n//    Student storage st = students[-_id];\r\n//    return (st.name, st.age);\r\n    return(students[_id].name, students[_id].age);\r\n  }\r\n\r\n  function getBalance() public view returns(uint256) {\r\n      return address(0xCFBb8878E8238cC104C1D4e6b0503A53A25ece68).balance;\r\n  }\r\n\r\n  function withdraw() public {\r\n    msg.sender.transfer(address(this).balance);\r\n  }\r\n//\r\n//  function deposit() public {\r\n//\r\n//  }\r\n\r\n}\r\n",
  "sourcePath": "D:/Techchain/Blockchain/election/contracts/ClassVoting.sol",
  "compiler": {
    "name": "solc",
    "version": "0.5.2+commit.1df8f40c.Emscripten.clang"
  },
  "schemaVersion": "3.0.11",
  "updatedAt": "2021-01-26T09:04:06.386Z",
  "devdoc": {
    "methods": {}
  },
  "userdoc": {
    "methods": {}
  }
}