{
  "contractName": "Election",
  "abi": [
    {
      "inputs": [],
      "payable": false,
      "stateMutability": "nonpayable",
      "type": "constructor"
    },
    {
      "constant": true,
      "inputs": [
        {
          "internalType": "uint256",
          "name": "",
          "type": "uint256"
        }
      ],
      "name": "addressContract",
      "outputs": [
        {
          "internalType": "address",
          "name": "",
          "type": "address"
        }
      ],
      "payable": false,
      "stateMutability": "view",
      "type": "function"
    },
    {
      "constant": true,
      "inputs": [
        {
          "internalType": "uint256",
          "name": "",
          "type": "uint256"
        }
      ],
      "name": "blockClass",
      "outputs": [
        {
          "internalType": "uint256",
          "name": "id",
          "type": "uint256"
        },
        {
          "internalType": "string",
          "name": "name",
          "type": "string"
        },
        {
          "internalType": "string",
          "name": "class",
          "type": "string"
        },
        {
          "internalType": "uint256",
          "name": "avg",
          "type": "uint256"
        }
      ],
      "payable": false,
      "stateMutability": "view",
      "type": "function"
    },
    {
      "constant": true,
      "inputs": [],
      "name": "candidate",
      "outputs": [
        {
          "internalType": "string",
          "name": "",
          "type": "string"
        }
      ],
      "payable": false,
      "stateMutability": "view",
      "type": "function"
    },
    {
      "constant": true,
      "inputs": [
        {
          "internalType": "uint256",
          "name": "",
          "type": "uint256"
        }
      ],
      "name": "candidates",
      "outputs": [
        {
          "internalType": "uint256",
          "name": "id",
          "type": "uint256"
        },
        {
          "internalType": "string",
          "name": "name",
          "type": "string"
        },
        {
          "internalType": "uint256",
          "name": "voteCount",
          "type": "uint256"
        }
      ],
      "payable": false,
      "stateMutability": "view",
      "type": "function"
    },
    {
      "constant": true,
      "inputs": [],
      "name": "candidatesCount",
      "outputs": [
        {
          "internalType": "uint256",
          "name": "",
          "type": "uint256"
        }
      ],
      "payable": false,
      "stateMutability": "view",
      "type": "function"
    },
    {
      "constant": true,
      "inputs": [],
      "name": "employer",
      "outputs": [
        {
          "internalType": "string",
          "name": "",
          "type": "string"
        }
      ],
      "payable": false,
      "stateMutability": "view",
      "type": "function"
    },
    {
      "constant": true,
      "inputs": [
        {
          "internalType": "uint256",
          "name": "",
          "type": "uint256"
        }
      ],
      "name": "students",
      "outputs": [
        {
          "internalType": "uint256",
          "name": "id",
          "type": "uint256"
        },
        {
          "internalType": "string",
          "name": "name",
          "type": "string"
        },
        {
          "internalType": "string",
          "name": "class",
          "type": "string"
        },
        {
          "internalType": "uint256",
          "name": "avg",
          "type": "uint256"
        }
      ],
      "payable": false,
      "stateMutability": "view",
      "type": "function"
    },
    {
      "constant": false,
      "inputs": [],
      "name": "logEmployer",
      "outputs": [],
      "payable": false,
      "stateMutability": "nonpayable",
      "type": "function"
    },
    {
      "constant": false,
      "inputs": [],
      "name": "demo",
      "outputs": [],
      "payable": false,
      "stateMutability": "nonpayable",
      "type": "function"
    }
  ],
  "bytecode": "0x608060405234801561001057600080fd5b506040518060400160405280600381526020017f48544100000000000000000000000000000000000000000000000000000000008152506006908051906020019061005c929190610062565b50610107565b828054600181600116156101000203166002900490600052602060002090601f016020900481019282601f106100a357805160ff19168380011785556100d1565b828001600101855582156100d1579182015b828111156100d05782518255916020019190600101906100b5565b5b5090506100de91906100e2565b5090565b61010491905b808211156101005760008160009055506001016100e8565b5090565b90565b610cdb806101166000396000f3fe608060405234801561001057600080fd5b50600436106100935760003560e01c806345caf7131161006657806345caf713146102965780636c8381f8146103b7578063a74dfd761461043a578063ad9e922214610444578063ae200e79146104b257610093565b806301725a0b1461009857806306ead22e146100a25780632d35a8a2146101c35780633477ee2e146101e1575b600080fd5b6100a0610535565b005b6100ce600480360360208110156100b857600080fd5b81019080803590602001909291905050506105b3565b604051808581526020018060200180602001848152602001838103835286818151815260200191508051906020019080838360005b8381101561011e578082015181840152602081019050610103565b50505050905090810190601f16801561014b5780820380516001836020036101000a031916815260200191505b50838103825285818151815260200191508051906020019080838360005b83811015610184578082015181840152602081019050610169565b50505050905090810190601f1680156101b15780820380516001836020036101000a031916815260200191505b50965050505050505060405180910390f35b6101cb610713565b6040518082815260200191505060405180910390f35b61020d600480360360208110156101f757600080fd5b8101908080359060200190929190505050610719565b6040518084815260200180602001838152602001828103825284818151815260200191508051906020019080838360005b8381101561025957808201518184015260208101905061023e565b50505050905090810190601f1680156102865780820380516001836020036101000a031916815260200191505b5094505050505060405180910390f35b6102c2600480360360208110156102ac57600080fd5b81019080803590602001909291905050506107db565b604051808581526020018060200180602001848152602001838103835286818151815260200191508051906020019080838360005b838110156103125780820151818401526020810190506102f7565b50505050905090810190601f16801561033f5780820380516001836020036101000a031916815260200191505b50838103825285818151815260200191508051906020019080838360005b8381101561037857808201518184015260208101905061035d565b50505050905090810190601f1680156103a55780820380516001836020036101000a031916815260200191505b50965050505050505060405180910390f35b6103bf610948565b6040518080602001828103825283818151815260200191508051906020019080838360005b838110156103ff5780820151818401526020810190506103e4565b50505050905090810190601f16801561042c5780820380516001836020036101000a031916815260200191505b509250505060405180910390f35b6104426109e6565b005b6104706004803603602081101561045a57600080fd5b8101908080359060200190929190505050610a34565b604051808273ffffffffffffffffffffffffffffffffffffffff1673ffffffffffffffffffffffffffffffffffffffff16815260200191505060405180910390f35b6104ba610a67565b6040518080602001828103825283818151815260200191508051906020019080838360005b838110156104fa5780820151818401526020810190506104df565b50505050905090810190601f1680156105275780820380516001836020036101000a031916815260200191505b509250505060405180910390f35b6105736040518060400160405280600b81526020017f43616e6469646174652031000000000000000000000000000000000000000000815250610b05565b6105b16040518060400160405280600b81526020017f43616e6469646174652032000000000000000000000000000000000000000000815250610b05565b565b6002602052806000526040600020600091509050806000015490806001018054600181600116156101000203166002900480601f0160208091040260200160405190810160405280929190818152602001828054600181600116156101000203166002900480156106655780601f1061063a57610100808354040283529160200191610665565b820191906000526020600020905b81548152906001019060200180831161064857829003601f168201915b505050505090806002018054600181600116156101000203166002900480601f0160208091040260200160405190810160405280929190818152602001828054600181600116156101000203166002900480156107035780601f106106d857610100808354040283529160200191610703565b820191906000526020600020905b8154815290600101906020018083116106e657829003601f168201915b5050505050908060030154905084565b60045481565b6001602052806000526040600020600091509050806000015490806001018054600181600116156101000203166002900480601f0160208091040260200160405190810160405280929190818152602001828054600181600116156101000203166002900480156107cb5780601f106107a0576101008083540402835291602001916107cb565b820191906000526020600020905b8154815290600101906020018083116107ae57829003601f168201915b5050505050908060020154905083565b600081815481106107e857fe5b9060005260206000209060040201600091509050806000015490806001018054600181600116156101000203166002900480601f01602080910402602001604051908101604052809291908181526020018280546001816001161561010002031660029004801561089a5780601f1061086f5761010080835404028352916020019161089a565b820191906000526020600020905b81548152906001019060200180831161087d57829003601f168201915b505050505090806002018054600181600116156101000203166002900480601f0160208091040260200160405190810160405280929190818152602001828054600181600116156101000203166002900480156109385780601f1061090d57610100808354040283529160200191610938565b820191906000526020600020905b81548152906001019060200180831161091b57829003601f168201915b5050505050908060030154905084565b60058054600181600116156101000203166002900480601f0160208091040260200160405190810160405280929190818152602001828054600181600116156101000203166002900480156109de5780601f106109b3576101008083540402835291602001916109de565b820191906000526020600020905b8154815290600101906020018083116109c157829003601f168201915b505050505081565b6040518060400160405280600381526020017f485441000000000000000000000000000000000000000000000000000000000081525060069080519060200190610a31929190610b81565b50565b60036020528060005260406000206000915054906101000a900473ffffffffffffffffffffffffffffffffffffffff1681565b60068054600181600116156101000203166002900480601f016020809104026020016040519081016040528092919081815260200182805460018160011615610100020316600290048015610afd5780601f10610ad257610100808354040283529160200191610afd565b820191906000526020600020905b815481529060010190602001808311610ae057829003601f168201915b505050505081565b600460008154809291906001019190505550604051806060016040528060045481526020018281526020016000815250600160006004548152602001908152602001600020600082015181600001556020820151816001019080519060200190610b70929190610c01565b506040820151816002015590505050565b828054600181600116156101000203166002900490600052602060002090601f016020900481019282601f10610bc257805160ff1916838001178555610bf0565b82800160010185558215610bf0579182015b82811115610bef578251825591602001919060010190610bd4565b5b509050610bfd9190610c81565b5090565b828054600181600116156101000203166002900490600052602060002090601f016020900481019282601f10610c4257805160ff1916838001178555610c70565b82800160010185558215610c70579182015b82811115610c6f578251825591602001919060010190610c54565b5b509050610c7d9190610c81565b5090565b610ca391905b80821115610c9f576000816000905550600101610c87565b5090565b9056fea265627a7a7231582072e91ce6753eb6cfe4bcfe39a11d674d7bbfb167f561714ea0c50db3d8c011d264736f6c63430005100032",
  "source": "pragma solidity >=0.4.22 <0.9.0;\n\ncontract Election {\n\t// Model a Candidate\n\tstruct Candidate {\n\t\tuint id;\n\t\tstring name;\n\t\tuint voteCount;\n\t}\n\n\tstruct Student {\n\t\tuint id;\n\t\tstring name;\n\t\tstring class;\n\t\tuint avg;\n\t}\n\n\tStudent[] public blockClass;\n\n\tmapping(uint => Candidate) public candidates;\n\tmapping(uint => Student) public students;\n\tmapping(uint => address) public addressContract;\n\n\tuint public candidatesCount;\n\tstring public candidate;\n\tstring public employer;\n\n\t// Constructor\n\tconstructor() public {\n\t\temployer = \"HTA\";\n\t}\n\n\tfunction logEmployer() public {\n\t\temployer = \"HTA\";\n\t}\n\n\tfunction demo() public {\n\t\taddCandidate(\"Candidate 1\");\n\t\taddCandidate(\"Candidate 2\");\n\t}\n\n\tfunction addCandidate (string memory _name) private {\n\t\tcandidatesCount ++;\n\t\tcandidates[candidatesCount] = Candidate(candidatesCount, _name, 0);\n\t}\n\n}",
  "sourcePath": "D:/Techchain/Blockchain/election/contracts/Election.sol",
  "compiler": {
    "name": "solc",
    "version": "0.5.16+commit.9c3226ce.Emscripten.clang"
  },
  "schemaVersion": "3.3.3",
  "updatedAt": "2021-01-06T09:57:17.917Z",
  "networkType": "ethereum",
  "devdoc": {
    "methods": {}
  },
  "userdoc": {
    "methods": {}
  }
}