{
  "contractName": "Election",
  "abi": [
    {
      "constant": true,
      "inputs": [
        {
          "name": "",
          "type": "uint256"
        }
      ],
      "name": "students",
      "outputs": [
        {
          "name": "id",
          "type": "uint256"
        },
        {
          "name": "name",
          "type": "string"
        },
        {
          "name": "class",
          "type": "string"
        },
        {
          "name": "avg",
          "type": "uint256"
        }
      ],
      "payable": false,
      "stateMutability": "view",
      "type": "function"
    },
    {
      "constant": true,
      "inputs": [],
      "name": "candidatesCount",
      "outputs": [
        {
          "name": "",
          "type": "uint256"
        }
      ],
      "payable": false,
      "stateMutability": "view",
      "type": "function"
    },
    {
      "constant": true,
      "inputs": [
        {
          "name": "",
          "type": "uint256"
        }
      ],
      "name": "candidates",
      "outputs": [
        {
          "name": "id",
          "type": "uint256"
        },
        {
          "name": "name",
          "type": "string"
        },
        {
          "name": "voteCount",
          "type": "uint256"
        }
      ],
      "payable": false,
      "stateMutability": "view",
      "type": "function"
    },
    {
      "constant": true,
      "inputs": [
        {
          "name": "",
          "type": "uint256"
        }
      ],
      "name": "blockClass",
      "outputs": [
        {
          "name": "id",
          "type": "uint256"
        },
        {
          "name": "name",
          "type": "string"
        },
        {
          "name": "class",
          "type": "string"
        },
        {
          "name": "avg",
          "type": "uint256"
        }
      ],
      "payable": false,
      "stateMutability": "view",
      "type": "function"
    },
    {
      "constant": true,
      "inputs": [],
      "name": "candidate",
      "outputs": [
        {
          "name": "",
          "type": "string"
        }
      ],
      "payable": false,
      "stateMutability": "view",
      "type": "function"
    },
    {
      "constant": true,
      "inputs": [
        {
          "name": "",
          "type": "address"
        }
      ],
      "name": "voters",
      "outputs": [
        {
          "name": "",
          "type": "bool"
        }
      ],
      "payable": false,
      "stateMutability": "view",
      "type": "function"
    },
    {
      "constant": true,
      "inputs": [
        {
          "name": "",
          "type": "uint256"
        }
      ],
      "name": "addressContract",
      "outputs": [
        {
          "name": "",
          "type": "address"
        }
      ],
      "payable": false,
      "stateMutability": "view",
      "type": "function"
    },
    {
      "constant": true,
      "inputs": [],
      "name": "employer",
      "outputs": [
        {
          "name": "",
          "type": "string"
        }
      ],
      "payable": false,
      "stateMutability": "view",
      "type": "function"
    },
    {
      "inputs": [],
      "payable": false,
      "stateMutability": "nonpayable",
      "type": "constructor"
    },
    {
      "constant": false,
      "inputs": [],
      "name": "logEmployer",
      "outputs": [],
      "payable": false,
      "stateMutability": "nonpayable",
      "type": "function"
    },
    {
      "constant": false,
      "inputs": [],
      "name": "demo",
      "outputs": [],
      "payable": false,
      "stateMutability": "nonpayable",
      "type": "function"
    },
    {
      "constant": false,
      "inputs": [
        {
          "name": "_candidateId",
          "type": "uint256"
        }
      ],
      "name": "vote",
      "outputs": [],
      "payable": false,
      "stateMutability": "nonpayable",
      "type": "function"
    }
  ],
  "bytecode": "0x608060405234801561001057600080fd5b506040805180820190915260038082527f485441000000000000000000000000000000000000000000000000000000000060209092019182526100559160079161005b565b506100f6565b828054600181600116156101000203166002900490600052602060002090601f016020900481019282601f1061009c57805160ff19168380011785556100c9565b828001600101855582156100c9579182015b828111156100c95782518255916020019190600101906100ae565b506100d59291506100d9565b5090565b6100f391905b808211156100d557600081556001016100df565b90565b6109f5806101056000396000f3fe608060405234801561001057600080fd5b50600436106100c6576000357c01000000000000000000000000000000000000000000000000000000009004806345caf7131161008e57806345caf713146102b85780636c8381f8146102d5578063a3ec138d14610352578063a74dfd7614610399578063ad9e9222146103a1578063ae200e79146103e7576100c6565b80630121b93f146100cb57806301725a0b146100ea57806306ead22e146100f25780632d35a8a2146101fb5780633477ee2e14610215575b600080fd5b6100e8600480360360208110156100e157600080fd5b50356103ef565b005b6100e861045e565b61010f6004803603602081101561010857600080fd5b50356104dc565b604051808581526020018060200180602001848152602001838103835286818151815260200191508051906020019080838360005b8381101561015c578181015183820152602001610144565b50505050905090810190601f1680156101895780820380516001836020036101000a031916815260200191505b50838103825285518152855160209182019187019080838360005b838110156101bc5781810151838201526020016101a4565b50505050905090810190601f1680156101e95780820380516001836020036101000a031916815260200191505b50965050505050505060405180910390f35b610203610619565b60408051918252519081900360200190f35b6102326004803603602081101561022b57600080fd5b503561061f565b6040518084815260200180602001838152602001828103825284818151815260200191508051906020019080838360005b8381101561027b578181015183820152602001610263565b50505050905090810190601f1680156102a85780820380516001836020036101000a031916815260200191505b5094505050505060405180910390f35b61010f600480360360208110156102ce57600080fd5b50356106cb565b6102dd610760565b6040805160208082528351818301528351919283929083019185019080838360005b838110156103175781810151838201526020016102ff565b50505050905090810190601f1680156103445780820380516001836020036101000a031916815260200191505b509250505060405180910390f35b6103856004803603602081101561036857600080fd5b503573ffffffffffffffffffffffffffffffffffffffff166107ee565b604080519115158252519081900360200190f35b6100e8610803565b6103be600480360360208110156103b757600080fd5b503561084a565b6040805173ffffffffffffffffffffffffffffffffffffffff9092168252519081900360200190f35b6102dd610872565b3360009081526004602052604090205460ff161561040c57600080fd5b60008111801561041e57506005548111155b151561042957600080fd5b336000908152600460209081526040808320805460ff1916600190811790915593835290839052902060020180549091019055565b61049c6040805190810160405280600b81526020017f43616e64696461746520310000000000000000000000000000000000000000008152506108cd565b6104da6040805190810160405280600b81526020017f43616e64696461746520320000000000000000000000000000000000000000008152506108cd565b565b60026020818152600092835260409283902080546001808301805487519281161561010002600019011695909504601f81018590048502820185019096528581529094919390929091908301828280156105775780601f1061054c57610100808354040283529160200191610577565b820191906000526020600020905b81548152906001019060200180831161055a57829003601f168201915b50505060028085018054604080516020601f60001961010060018716150201909416959095049283018590048502810185019091528181529596959450909250908301828280156106095780601f106105de57610100808354040283529160200191610609565b820191906000526020600020905b8154815290600101906020018083116105ec57829003601f168201915b5050505050908060030154905084565b60055481565b600160208181526000928352604092839020805481840180548651600296821615610100026000190190911695909504601f810185900485028601850190965285855290949193929091908301828280156106bb5780601f10610690576101008083540402835291602001916106bb565b820191906000526020600020905b81548152906001019060200180831161069e57829003601f168201915b5050505050908060020154905083565b60008054829081106106d957fe5b9060005260206000209060040201600091509050806000015490806001018054600181600116156101000203166002900480601f0160208091040260200160405190810160405280929190818152602001828054600181600116156101000203166002900480156105775780601f1061054c57610100808354040283529160200191610577565b6006805460408051602060026001851615610100026000190190941693909304601f810184900484028201840190925281815292918301828280156107e65780601f106107bb576101008083540402835291602001916107e6565b820191906000526020600020905b8154815290600101906020018083116107c957829003601f168201915b505050505081565b60046020526000908152604090205460ff1681565b6040805180820190915260038082527f485441000000000000000000000000000000000000000000000000000000000060209092019182526108479160079161092e565b50565b60036020526000908152604090205473ffffffffffffffffffffffffffffffffffffffff1681565b6007805460408051602060026001851615610100026000190190941693909304601f810184900484028201840190925281815292918301828280156107e65780601f106107bb576101008083540402835291602001916107e6565b6005805460019081019182905560408051606081018252838152602080820186815260008385018190529586528482529290942081518155915180519194929361091d939085019291019061092e565b506040820151816002015590505050565b828054600181600116156101000203166002900490600052602060002090601f016020900481019282601f1061096f57805160ff191683800117855561099c565b8280016001018555821561099c579182015b8281111561099c578251825591602001919060010190610981565b506109a89291506109ac565b5090565b6109c691905b808211156109a857600081556001016109b2565b9056fea165627a7a72305820d3f08d03cd09963685966e98e430daec2b7f15f6ca9e74ad02ae19b4342c07710029",
  "source": "pragma solidity >=0.4.22 <0.9.0;\r\n\r\ncontract Election {\r\n\t// Model a Candidate\r\n\tstruct Candidate {\r\n\t\tuint id;\r\n\t\tstring name;\r\n\t\tuint voteCount;\r\n\t}\r\n\r\n\tstruct Student {\r\n\t\tuint id;\r\n\t\tstring name;\r\n\t\tstring class;\r\n\t\tuint avg;\r\n\t}\r\n\r\n\tStudent[] public blockClass;\r\n\r\n\tmapping(uint => Candidate) public candidates;\r\n\tmapping(uint => Student) public students;\r\n\tmapping(uint => address) public addressContract;\r\n\tmapping(address => bool) public voters;\r\n\r\n\tuint public candidatesCount;\r\n\tstring public candidate;\r\n\tstring public employer;\r\n\r\n\t// Constructor\r\n\tconstructor() public {\r\n\t\temployer = \"HTA\";\r\n\t}\r\n\r\n\tfunction logEmployer() public {\r\n\t\temployer = \"HTA\";\r\n\t}\r\n\r\n\tfunction demo() public {\r\n\t\taddCandidate(\"Candidate 1\");\r\n\t\taddCandidate(\"Candidate 2\");\r\n\t}\r\n\r\n\tfunction addCandidate (string memory _name) private {\r\n\t\tcandidatesCount ++;\r\n\t\tcandidates[candidatesCount] = Candidate(candidatesCount, _name, 0);\r\n\t}\r\n\r\n\tfunction vote (uint _candidateId) public {\r\n\t\t// require that they haven't voted before\r\n\t\trequire(!voters[msg.sender]);\r\n\r\n\t\t// require a valid candidate\r\n\t\trequire(_candidateId > 0 && _candidateId <= candidatesCount);\r\n\r\n\t\t// record that voter has voted\r\n\t\tvoters[msg.sender] = true;\r\n\r\n\t\t// update candidate vote Count\r\n\t\tcandidates[_candidateId].voteCount ++;\r\n\t}\r\n\r\n}",
  "sourcePath": "D:/Techchain/Blockchain/election/contracts/Election.sol",
  "compiler": {
    "name": "solc",
    "version": "0.5.2+commit.1df8f40c.Emscripten.clang"
  },
  "schemaVersion": "3.0.11",
  "updatedAt": "2021-01-26T09:04:06.408Z",
  "devdoc": {
    "methods": {}
  },
  "userdoc": {
    "methods": {}
  }
}