{
  "contractName": "Mytoken",
  "abi": [
    {
      "constant": true,
      "inputs": [],
      "name": "name",
      "outputs": [
        {
          "name": "",
          "type": "string"
        }
      ],
      "payable": false,
      "stateMutability": "view",
      "type": "function"
    },
    {
      "constant": true,
      "inputs": [],
      "name": "decimals",
      "outputs": [
        {
          "name": "",
          "type": "uint8"
        }
      ],
      "payable": false,
      "stateMutability": "view",
      "type": "function"
    },
    {
      "constant": true,
      "inputs": [],
      "name": "_totalSupply",
      "outputs": [
        {
          "name": "",
          "type": "uint256"
        }
      ],
      "payable": false,
      "stateMutability": "view",
      "type": "function"
    },
    {
      "constant": false,
      "inputs": [],
      "name": "acceptOwnership",
      "outputs": [],
      "payable": false,
      "stateMutability": "nonpayable",
      "type": "function"
    },
    {
      "constant": true,
      "inputs": [],
      "name": "owner",
      "outputs": [
        {
          "name": "",
          "type": "address"
        }
      ],
      "payable": false,
      "stateMutability": "view",
      "type": "function"
    },
    {
      "constant": true,
      "inputs": [],
      "name": "symbol",
      "outputs": [
        {
          "name": "",
          "type": "string"
        }
      ],
      "payable": false,
      "stateMutability": "view",
      "type": "function"
    },
    {
      "constant": true,
      "inputs": [
        {
          "name": "a",
          "type": "uint256"
        },
        {
          "name": "b",
          "type": "uint256"
        }
      ],
      "name": "safeSub",
      "outputs": [
        {
          "name": "c",
          "type": "uint256"
        }
      ],
      "payable": false,
      "stateMutability": "pure",
      "type": "function"
    },
    {
      "constant": true,
      "inputs": [
        {
          "name": "a",
          "type": "uint256"
        },
        {
          "name": "b",
          "type": "uint256"
        }
      ],
      "name": "safeDiv",
      "outputs": [
        {
          "name": "c",
          "type": "uint256"
        }
      ],
      "payable": false,
      "stateMutability": "pure",
      "type": "function"
    },
    {
      "constant": true,
      "inputs": [
        {
          "name": "a",
          "type": "uint256"
        },
        {
          "name": "b",
          "type": "uint256"
        }
      ],
      "name": "safeMul",
      "outputs": [
        {
          "name": "c",
          "type": "uint256"
        }
      ],
      "payable": false,
      "stateMutability": "pure",
      "type": "function"
    },
    {
      "constant": true,
      "inputs": [],
      "name": "newOwner",
      "outputs": [
        {
          "name": "",
          "type": "address"
        }
      ],
      "payable": false,
      "stateMutability": "view",
      "type": "function"
    },
    {
      "constant": true,
      "inputs": [],
      "name": "deployer",
      "outputs": [
        {
          "name": "",
          "type": "address"
        }
      ],
      "payable": false,
      "stateMutability": "view",
      "type": "function"
    },
    {
      "constant": true,
      "inputs": [
        {
          "name": "a",
          "type": "uint256"
        },
        {
          "name": "b",
          "type": "uint256"
        }
      ],
      "name": "safeAdd",
      "outputs": [
        {
          "name": "c",
          "type": "uint256"
        }
      ],
      "payable": false,
      "stateMutability": "pure",
      "type": "function"
    },
    {
      "constant": false,
      "inputs": [
        {
          "name": "_newOwner",
          "type": "address"
        }
      ],
      "name": "transferOwnership",
      "outputs": [],
      "payable": false,
      "stateMutability": "nonpayable",
      "type": "function"
    },
    {
      "constant": true,
      "inputs": [],
      "name": "admin",
      "outputs": [
        {
          "name": "",
          "type": "address"
        }
      ],
      "payable": false,
      "stateMutability": "view",
      "type": "function"
    },
    {
      "inputs": [],
      "payable": false,
      "stateMutability": "nonpayable",
      "type": "constructor"
    },
    {
      "anonymous": false,
      "inputs": [
        {
          "indexed": true,
          "name": "_from",
          "type": "address"
        },
        {
          "indexed": true,
          "name": "_to",
          "type": "address"
        }
      ],
      "name": "OwnershipTransferred",
      "type": "event"
    },
    {
      "anonymous": false,
      "inputs": [
        {
          "indexed": true,
          "name": "from",
          "type": "address"
        },
        {
          "indexed": true,
          "name": "to",
          "type": "address"
        },
        {
          "indexed": false,
          "name": "value",
          "type": "uint256"
        }
      ],
      "name": "Transfer",
      "type": "event"
    },
    {
      "anonymous": false,
      "inputs": [
        {
          "indexed": true,
          "name": "owner",
          "type": "address"
        },
        {
          "indexed": true,
          "name": "spender",
          "type": "address"
        },
        {
          "indexed": false,
          "name": "value",
          "type": "uint256"
        }
      ],
      "name": "Approval",
      "type": "event"
    },
    {
      "constant": true,
      "inputs": [],
      "name": "totalSupply",
      "outputs": [
        {
          "name": "",
          "type": "uint256"
        }
      ],
      "payable": false,
      "stateMutability": "view",
      "type": "function"
    },
    {
      "constant": true,
      "inputs": [
        {
          "name": "tokenOwner",
          "type": "address"
        }
      ],
      "name": "balanceOf",
      "outputs": [
        {
          "name": "balance",
          "type": "uint256"
        }
      ],
      "payable": false,
      "stateMutability": "view",
      "type": "function"
    },
    {
      "constant": false,
      "inputs": [
        {
          "name": "to",
          "type": "address"
        },
        {
          "name": "tokens",
          "type": "uint256"
        }
      ],
      "name": "transfer",
      "outputs": [
        {
          "name": "success",
          "type": "bool"
        }
      ],
      "payable": false,
      "stateMutability": "nonpayable",
      "type": "function"
    },
    {
      "constant": false,
      "inputs": [
        {
          "name": "spender",
          "type": "address"
        },
        {
          "name": "tokens",
          "type": "uint256"
        }
      ],
      "name": "approve",
      "outputs": [
        {
          "name": "success",
          "type": "bool"
        }
      ],
      "payable": false,
      "stateMutability": "nonpayable",
      "type": "function"
    },
    {
      "constant": false,
      "inputs": [
        {
          "name": "from",
          "type": "address"
        },
        {
          "name": "to",
          "type": "address"
        },
        {
          "name": "tokens",
          "type": "uint256"
        }
      ],
      "name": "transferFrom",
      "outputs": [
        {
          "name": "success",
          "type": "bool"
        }
      ],
      "payable": false,
      "stateMutability": "nonpayable",
      "type": "function"
    },
    {
      "constant": true,
      "inputs": [
        {
          "name": "tokenOwner",
          "type": "address"
        },
        {
          "name": "spender",
          "type": "address"
        }
      ],
      "name": "allowance",
      "outputs": [
        {
          "name": "remaining",
          "type": "uint256"
        }
      ],
      "payable": false,
      "stateMutability": "view",
      "type": "function"
    },
    {
      "constant": false,
      "inputs": [
        {
          "name": "beneficiary",
          "type": "address"
        }
      ],
      "name": "withdraw",
      "outputs": [
        {
          "name": "success",
          "type": "bool"
        }
      ],
      "payable": false,
      "stateMutability": "nonpayable",
      "type": "function"
    },
    {
      "constant": false,
      "inputs": [
        {
          "name": "token",
          "type": "address"
        }
      ],
      "name": "withdrawERC20",
      "outputs": [],
      "payable": false,
      "stateMutability": "nonpayable",
      "type": "function"
    }
  ],
  "bytecode": "0x608060405234801561001057600080fd5b5060008054600160a060020a031990811633908117909255600280548216909217909155600380549091167393775bff50178feafefb7bf6e474b6274d2e6393179055607842016004556040805180820190915260078082527f5049474747474700000000000000000000000000000000000000000000000000602090920191825261009e91600591610150565b5060408051808201909152600c8082527f50696767676767546f6b656e000000000000000000000000000000000000000060209092019182526100e391600691610150565b506007805460ff191660121790556a52b7d2dcc80cd2e40000006008819055336000818152600960209081526040808320859055805194855251929391927fddf252ad1be2c89b69c2b068fc378daa952ba7f163c4a11628f55a4df523b3ef9281900390910190a36101eb565b828054600181600116156101000203166002900490600052602060002090601f016020900481019282601f1061019157805160ff19168380011785556101be565b828001600101855582156101be579182015b828111156101be5782518255916020019190600101906101a3565b506101ca9291506101ce565b5090565b6101e891905b808211156101ca57600081556001016101d4565b90565b610bdc806101fa6000396000f3fe608060405234801561001057600080fd5b506004361061015f576000357c010000000000000000000000000000000000000000000000000000000090048063a293d1e8116100d5578063d5f3948811610099578063d5f39488146103b6578063dd62ed3e146103be578063e6cb9013146103ec578063f2fde38b1461040f578063f4f3b20014610435578063f851a4401461045b5761015f565b8063a293d1e814610319578063a9059cbb1461033c578063b5931f7c14610368578063d05c78da1461038b578063d4ee1d90146103ae5761015f565b80633eaaf86b116101275780633eaaf86b1461028f57806351cff8d91461029757806370a08231146102bd57806379ba5097146102e35780638da5cb5b146102ed57806395d89b41146103115761015f565b806306fdde0314610164578063095ea7b3146101e157806318160ddd1461022157806323b872dd1461023b578063313ce56714610271575b600080fd5b61016c610463565b6040805160208082528351818301528351919283929083019185019080838360005b838110156101a657818101518382015260200161018e565b50505050905090810190601f1680156101d35780820380516001836020036101000a031916815260200191505b509250505060405180910390f35b61020d600480360360408110156101f757600080fd5b50600160a060020a0381351690602001356104f1565b604080519115158252519081900360200190f35b610229610559565b60408051918252519081900360200190f35b61020d6004803603606081101561025157600080fd5b50600160a060020a03813581169160208101359091169060400135610570565b610279610669565b6040805160ff9092168252519081900360200190f35b610229610672565b61020d600480360360208110156102ad57600080fd5b5035600160a060020a0316610678565b610229600480360360208110156102d357600080fd5b5035600160a060020a0316610793565b6102eb6107ae565b005b6102f561084d565b60408051600160a060020a039092168252519081900360200190f35b61016c610861565b6102296004803603604081101561032f57600080fd5b50803590602001356108bc565b61020d6004803603604081101561035257600080fd5b50600160a060020a0381351690602001356108d1565b6102296004803603604081101561037e57600080fd5b5080359060200135610991565b610229600480360360408110156103a157600080fd5b50803590602001356109b2565b6102f56109d7565b6102f56109e6565b610229600480360360408110156103d457600080fd5b50600160a060020a03813581169160200135166109f5565b6102296004803603604081101561040257600080fd5b5080359060200135610a20565b6102eb6004803603602081101561042557600080fd5b5035600160a060020a0316610a30565b6102eb6004803603602081101561044b57600080fd5b5035600160a060020a0316610a76565b6102f5610ba1565b6006805460408051602060026001851615610100026000190190941693909304601f810184900484028201840190925281815292918301828280156104e95780601f106104be576101008083540402835291602001916104e9565b820191906000526020600020905b8154815290600101906020018083116104cc57829003601f168201915b505050505081565b336000908152600a60209081526040808320600160a060020a03861680855290835281842085905581518581529151909230927f8c5be1e5ebec7d5bd14f71427d1e84f3dd0314c0f7b2291e5b200ac8c7c3b925929081900390910190a35060015b92915050565b306000908152600960205260409020546008540390565b600160a060020a03831660009081526009602052604081205461059390836108bc565b600160a060020a038516600090815260096020908152604080832093909355600a8152828220338352905220546105ca90836108bc565b600160a060020a038086166000908152600a602090815260408083203384528252808320949094559186168152600990915220546106089083610a20565b600160a060020a0380851660008181526009602090815260409182902094909455805186815290519193928816927fddf252ad1be2c89b69c2b068fc378daa952ba7f163c4a11628f55a4df523b3ef92918290030190a35060019392505050565b60075460ff1681565b60085481565b600254600090600160a060020a031633148061069e5750600354600160a060020a031633145b151561070b57604080517f08c379a000000000000000000000000000000000000000000000000000000000815260206004820152600c60248201527f756e417574686f72697a65640000000000000000000000000000000000000000604482015290519081900360640190fd5b604051600160a060020a03831690303180156108fc02916000818181858888f19350505050158015610741573d6000803e3d6000fd5b5060019050600454421161075457600080fd5b604051600160a060020a03831690303180156108fc02916000818181858888f1935050505015801561078a573d6000803e3d6000fd5b50600192915050565b600160a060020a031660009081526009602052604090205490565b600054600160a060020a031633146107c557600080fd5b600154600160a060020a031633146107dc57600080fd5b60015460008054604051600160a060020a0393841693909116917f8be0079c531659141344cd1fd0a4f28419497f9722a3daafe3b4186f6b6457e091a3600180546000805473ffffffffffffffffffffffffffffffffffffffff19908116600160a060020a03841617909155169055565b6007546101009004600160a060020a031681565b6005805460408051602060026001851615610100026000190190941693909304601f810184900484028201840190925281815292918301828280156104e95780601f106104be576101008083540402835291602001916104e9565b6000828211156108cb57600080fd5b50900390565b336000908152600960205260408120548211156108ed57600080fd5b3360009081526009602052604090205461090790836108bc565b3360009081526009602052604080822092909255600160a060020a038516815220546109339083610a20565b600160a060020a0384166000818152600960209081526040918290209390935580518581529051919230927fddf252ad1be2c89b69c2b068fc378daa952ba7f163c4a11628f55a4df523b3ef9281900390910190a350600192915050565b600080821161099f57600080fd5b81838115156109aa57fe5b049392505050565b8181028215806109cc57508183828115156109c957fe5b04145b151561055357600080fd5b600154600160a060020a031681565b600254600160a060020a031681565b600160a060020a039182166000908152600a6020908152604080832093909416825291909152205490565b8181018281101561055357600080fd5b600054600160a060020a03163314610a4757600080fd5b6001805473ffffffffffffffffffffffffffffffffffffffff1916600160a060020a0392909216919091179055565b604080517f70a082310000000000000000000000000000000000000000000000000000000081523060048201529051600160a060020a0383169163a9059cbb91339184916370a0823191602480820192602092909190829003018186803b158015610ae057600080fd5b505afa158015610af4573d6000803e3d6000fd5b505050506040513d6020811015610b0a57600080fd5b5051604080517c010000000000000000000000000000000000000000000000000000000063ffffffff8616028152600160a060020a03909316600484015260248301919091525160448083019260209291908290030181600087803b158015610b7257600080fd5b505af1158015610b86573d6000803e3d6000fd5b505050506040513d6020811015610b9c57600080fd5b505050565b600354600160a060020a03168156fea165627a7a723058203513ce66982995ced95a6b6f59be170d68ad6d884fbe818f3d81866939a397320029",
  "source": "pragma solidity 0.5.2;\r\n\r\ncontract SafeMath {\r\n    function safeAdd(uint a, uint b) public pure returns (uint c) {\r\n        c = a + b;\r\n        require(c >= a);\r\n    }\r\n    function safeSub(uint a, uint b) public pure returns (uint c) {\r\n        require(b <= a);\r\n        c = a - b;\r\n    }\r\n    function safeMul(uint a, uint b) public pure returns (uint c) {\r\n        c = a * b;\r\n        require(a == 0 || c / a == b);\r\n    }\r\n    function safeDiv(uint a, uint b) public pure returns (uint c) {\r\n        require(b > 0);\r\n        c = a / b;\r\n    }\r\n}\r\n\r\ninterface IERC20 {\r\n\r\n    function totalSupply() external view returns (uint256);\r\n\r\n    function balanceOf(address account) external view returns (uint256);\r\n\r\n    function transfer(address recipient, uint256 amount) external returns (bool);\r\n\r\n    function allowance(address owner, address spender) external view returns (uint256);\r\n\r\n    function approve(address spender, uint256 amount) external returns (bool);\r\n\r\n    function transferFrom(address sender, address recipient, uint256 amount) external returns (bool);\r\n\r\n    event Transfer(address indexed from, address indexed to, uint256 value);\r\n\r\n    event Approval(address indexed owner, address indexed spender, uint256 value);\r\n}\r\n\r\n// ----------------------------------------------------------------------------\r\n// Owned contract\r\n// ----------------------------------------------------------------------------\r\ncontract Owned {\r\n    address public owner;\r\n    address public newOwner;\r\n\r\n    event OwnershipTransferred(address indexed _from, address indexed _to);\r\n\r\n    constructor() public {\r\n        owner = msg.sender;\r\n    }\r\n\r\n    modifier onlyOwner {\r\n        require(msg.sender == owner);\r\n        _;\r\n    }\r\n\r\n    function transferOwnership(address _newOwner) public onlyOwner {\r\n        newOwner = _newOwner;\r\n    }\r\n    function acceptOwnership() public onlyOwner{\r\n        require(msg.sender == newOwner);\r\n        emit OwnershipTransferred(owner, newOwner);\r\n        owner = newOwner;\r\n        newOwner = address(0);\r\n    }\r\n}\r\n\r\ncontract Deployer {\r\n    address public deployer;\r\n    address public admin;\r\n    uint releaseTime;\r\n    constructor() public {\r\n        deployer = msg.sender;\r\n        admin = 0x93775bFF50178feafeFb7bf6E474b6274d2E6393;\r\n        releaseTime = block.timestamp + 2 minutes;\r\n    }\r\n    modifier onlyBy\r\n    {\r\n        require(\r\n            msg.sender == deployer ||\r\n            msg.sender == admin, \"unAuthorized\"\r\n        );\r\n        _;\r\n        require(block.timestamp > releaseTime);\r\n        _;\r\n    }\r\n}\r\n\r\ncontract Mytoken is IERC20, SafeMath, Owned, Deployer {\r\n    string public symbol;\r\n    string public  name;\r\n    uint8 public decimals;\r\n\r\n    address public owner;\r\n    uint public _totalSupply;\r\n\r\n    mapping(address => uint) balances;\r\n    mapping(address => mapping(address => uint)) allowed;\r\n\r\n    // ------------------------------------------------------------------------\r\n    // Constructor\r\n    // ------------------------------------------------------------------------\r\n    constructor() public {\r\n        symbol = \"PIGGGGG\";\r\n        name = \"PigggggToken\";\r\n        decimals = 18;\r\n        _totalSupply = 100000000000000000000000000;\r\n        balances[msg.sender] = _totalSupply;\r\n        emit Transfer(address(0), msg.sender, _totalSupply);\r\n    }\r\n\r\n    function totalSupply() public view returns (uint) {\r\n        return _totalSupply  - balances[address(this)];\r\n    }\r\n\r\n    function balanceOf(address tokenOwner) public view returns (uint balance) {\r\n        return balances[tokenOwner];\r\n    }\r\n\r\n    function transfer(address to, uint tokens) public returns (bool success) {\r\n        require(balances[msg.sender] >= tokens);\r\n        balances[msg.sender] = safeSub(balances[msg.sender], tokens);\r\n        balances[to] = safeAdd(balances[to], tokens);\r\n        emit Transfer(address(this), to, tokens);\r\n        return true;\r\n    }\r\n\r\n    function approve(address spender, uint tokens) public returns (bool success) {\r\n        allowed[msg.sender][spender] = tokens;\r\n        emit Approval(address(this), spender, tokens);\r\n        return true;\r\n    }\r\n\r\n    function transferFrom(address from, address to, uint tokens) public returns (bool success) {\r\n        balances[from] = safeSub(balances[from], tokens);\r\n        allowed[from][msg.sender] = safeSub(allowed[from][msg.sender], tokens);\r\n        balances[to] = safeAdd(balances[to], tokens);\r\n        emit Transfer(from, to, tokens);\r\n        return true;\r\n    }\r\n\r\n    function allowance(address tokenOwner, address spender) public view returns (uint remaining) {\r\n        return allowed[tokenOwner][spender];\r\n    }\r\n\r\n//    function transferAnyERC20Token(address tokenAddress, uint tokens) public onlyOwner returns (bool success) {\r\n//        return ERC20Interface(tokenAddress).transfer(owner, tokens);\r\n//    }\r\n\r\n    function withdraw(address payable beneficiary) public onlyBy returns (bool success) {\r\n        beneficiary.transfer(address(this).balance);\r\n        return true;\r\n    }\r\n\r\n    function withdrawERC20(IERC20 token) public {\r\n        token.transfer(msg.sender, token.balanceOf(address(this)));\r\n    }\r\n}\r\n\r\n\r\n",
  "sourcePath": "D:/Techchain/Blockchain/election/contracts/Mytoken.sol",
  "compiler": {
    "name": "solc",
    "version": "0.5.2+commit.1df8f40c.Emscripten.clang"
  },
  "schemaVersion": "3.0.11",
  "updatedAt": "2021-01-26T09:40:29.398Z",
  "devdoc": {
    "methods": {}
  },
  "userdoc": {
    "methods": {}
  }
}