{
  "contractName": "PigERC20",
  "abi": [
    {
      "constant": true,
      "inputs": [],
      "name": "name",
      "outputs": [
        {
          "name": "",
          "type": "string"
        }
      ],
      "payable": false,
      "stateMutability": "view",
      "type": "function"
    },
    {
      "constant": true,
      "inputs": [],
      "name": "decimals",
      "outputs": [
        {
          "name": "",
          "type": "uint8"
        }
      ],
      "payable": false,
      "stateMutability": "view",
      "type": "function"
    },
    {
      "constant": true,
      "inputs": [],
      "name": "_totalSupply",
      "outputs": [
        {
          "name": "",
          "type": "uint256"
        }
      ],
      "payable": false,
      "stateMutability": "view",
      "type": "function"
    },
    {
      "constant": false,
      "inputs": [],
      "name": "acceptOwnership",
      "outputs": [],
      "payable": false,
      "stateMutability": "nonpayable",
      "type": "function"
    },
    {
      "constant": true,
      "inputs": [],
      "name": "owner",
      "outputs": [
        {
          "name": "",
          "type": "address"
        }
      ],
      "payable": false,
      "stateMutability": "view",
      "type": "function"
    },
    {
      "constant": true,
      "inputs": [],
      "name": "symbol",
      "outputs": [
        {
          "name": "",
          "type": "string"
        }
      ],
      "payable": false,
      "stateMutability": "view",
      "type": "function"
    },
    {
      "constant": true,
      "inputs": [
        {
          "name": "a",
          "type": "uint256"
        },
        {
          "name": "b",
          "type": "uint256"
        }
      ],
      "name": "safeSub",
      "outputs": [
        {
          "name": "c",
          "type": "uint256"
        }
      ],
      "payable": false,
      "stateMutability": "pure",
      "type": "function"
    },
    {
      "constant": true,
      "inputs": [
        {
          "name": "a",
          "type": "uint256"
        },
        {
          "name": "b",
          "type": "uint256"
        }
      ],
      "name": "safeDiv",
      "outputs": [
        {
          "name": "c",
          "type": "uint256"
        }
      ],
      "payable": false,
      "stateMutability": "pure",
      "type": "function"
    },
    {
      "constant": true,
      "inputs": [
        {
          "name": "a",
          "type": "uint256"
        },
        {
          "name": "b",
          "type": "uint256"
        }
      ],
      "name": "safeMul",
      "outputs": [
        {
          "name": "c",
          "type": "uint256"
        }
      ],
      "payable": false,
      "stateMutability": "pure",
      "type": "function"
    },
    {
      "constant": true,
      "inputs": [],
      "name": "newOwner",
      "outputs": [
        {
          "name": "",
          "type": "address"
        }
      ],
      "payable": false,
      "stateMutability": "view",
      "type": "function"
    },
    {
      "constant": true,
      "inputs": [],
      "name": "deployer",
      "outputs": [
        {
          "name": "",
          "type": "address"
        }
      ],
      "payable": false,
      "stateMutability": "view",
      "type": "function"
    },
    {
      "constant": true,
      "inputs": [
        {
          "name": "a",
          "type": "uint256"
        },
        {
          "name": "b",
          "type": "uint256"
        }
      ],
      "name": "safeAdd",
      "outputs": [
        {
          "name": "c",
          "type": "uint256"
        }
      ],
      "payable": false,
      "stateMutability": "pure",
      "type": "function"
    },
    {
      "constant": false,
      "inputs": [
        {
          "name": "_newOwner",
          "type": "address"
        }
      ],
      "name": "transferOwnership",
      "outputs": [],
      "payable": false,
      "stateMutability": "nonpayable",
      "type": "function"
    },
    {
      "constant": true,
      "inputs": [],
      "name": "admin",
      "outputs": [
        {
          "name": "",
          "type": "address"
        }
      ],
      "payable": false,
      "stateMutability": "view",
      "type": "function"
    },
    {
      "inputs": [],
      "payable": false,
      "stateMutability": "nonpayable",
      "type": "constructor"
    },
    {
      "payable": true,
      "stateMutability": "payable",
      "type": "fallback"
    },
    {
      "anonymous": false,
      "inputs": [
        {
          "indexed": true,
          "name": "_from",
          "type": "address"
        },
        {
          "indexed": true,
          "name": "_to",
          "type": "address"
        }
      ],
      "name": "OwnershipTransferred",
      "type": "event"
    },
    {
      "anonymous": false,
      "inputs": [
        {
          "indexed": true,
          "name": "from",
          "type": "address"
        },
        {
          "indexed": true,
          "name": "to",
          "type": "address"
        },
        {
          "indexed": false,
          "name": "tokens",
          "type": "uint256"
        }
      ],
      "name": "Transfer",
      "type": "event"
    },
    {
      "anonymous": false,
      "inputs": [
        {
          "indexed": true,
          "name": "tokenOwner",
          "type": "address"
        },
        {
          "indexed": true,
          "name": "spender",
          "type": "address"
        },
        {
          "indexed": false,
          "name": "tokens",
          "type": "uint256"
        }
      ],
      "name": "Approval",
      "type": "event"
    },
    {
      "constant": true,
      "inputs": [],
      "name": "totalSupply",
      "outputs": [
        {
          "name": "",
          "type": "uint256"
        }
      ],
      "payable": false,
      "stateMutability": "view",
      "type": "function"
    },
    {
      "constant": true,
      "inputs": [
        {
          "name": "tokenOwner",
          "type": "address"
        }
      ],
      "name": "balanceOf",
      "outputs": [
        {
          "name": "balance",
          "type": "uint256"
        }
      ],
      "payable": false,
      "stateMutability": "view",
      "type": "function"
    },
    {
      "constant": false,
      "inputs": [
        {
          "name": "to",
          "type": "address"
        },
        {
          "name": "tokens",
          "type": "uint256"
        }
      ],
      "name": "transfer",
      "outputs": [
        {
          "name": "success",
          "type": "bool"
        }
      ],
      "payable": false,
      "stateMutability": "nonpayable",
      "type": "function"
    },
    {
      "constant": false,
      "inputs": [
        {
          "name": "spender",
          "type": "address"
        },
        {
          "name": "tokens",
          "type": "uint256"
        }
      ],
      "name": "approve",
      "outputs": [
        {
          "name": "success",
          "type": "bool"
        }
      ],
      "payable": false,
      "stateMutability": "nonpayable",
      "type": "function"
    },
    {
      "constant": false,
      "inputs": [
        {
          "name": "from",
          "type": "address"
        },
        {
          "name": "to",
          "type": "address"
        },
        {
          "name": "tokens",
          "type": "uint256"
        }
      ],
      "name": "transferFrom",
      "outputs": [
        {
          "name": "success",
          "type": "bool"
        }
      ],
      "payable": false,
      "stateMutability": "nonpayable",
      "type": "function"
    },
    {
      "constant": true,
      "inputs": [
        {
          "name": "tokenOwner",
          "type": "address"
        },
        {
          "name": "spender",
          "type": "address"
        }
      ],
      "name": "allowance",
      "outputs": [
        {
          "name": "remaining",
          "type": "uint256"
        }
      ],
      "payable": false,
      "stateMutability": "view",
      "type": "function"
    },
    {
      "constant": false,
      "inputs": [
        {
          "name": "spender",
          "type": "address"
        },
        {
          "name": "tokens",
          "type": "uint256"
        },
        {
          "name": "data",
          "type": "bytes"
        }
      ],
      "name": "approveAndCall",
      "outputs": [
        {
          "name": "success",
          "type": "bool"
        }
      ],
      "payable": false,
      "stateMutability": "nonpayable",
      "type": "function"
    },
    {
      "constant": false,
      "inputs": [
        {
          "name": "tokenAddress",
          "type": "address"
        },
        {
          "name": "tokens",
          "type": "uint256"
        }
      ],
      "name": "transferAnyERC20Token",
      "outputs": [
        {
          "name": "success",
          "type": "bool"
        }
      ],
      "payable": false,
      "stateMutability": "nonpayable",
      "type": "function"
    },
    {
      "constant": false,
      "inputs": [
        {
          "name": "beneficiary",
          "type": "address"
        }
      ],
      "name": "withdraw",
      "outputs": [],
      "payable": false,
      "stateMutability": "nonpayable",
      "type": "function"
    }
  ],
  "bytecode": "0x60806040526007805461010060a860020a03191674b4dcdbe054350c6d6cce280cb520346e16953f800017905534801561003857600080fd5b5060008054600160a060020a031990811633908117909255600280548216909217909155600380549091167393775bff50178feafefb7bf6e474b6274d2e639317815560784201600455604080518082019091528181527f504947000000000000000000000000000000000000000000000000000000000060209091019081526100c591600591906101aa565b506040805180820190915260088082527f506967546f6b656e000000000000000000000000000000000000000000000000602090920191825261010a916006916101aa565b506007805460ff1916601217815560098054600160a060020a0319908116339081179092556a52b7d2dcc80cd2e4000000600b8190556000838152600c60209081526040808320849055955460088054909516610100909104600160a060020a031617909355845191825293519293927fddf252ad1be2c89b69c2b068fc378daa952ba7f163c4a11628f55a4df523b3ef929181900390910190a3610245565b828054600181600116156101000203166002900490600052602060002090601f016020900481019282601f106101eb57805160ff1916838001178555610218565b82800160010185558215610218579182015b828111156102185782518255916020019190600101906101fd565b50610224929150610228565b5090565b61024291905b80821115610224576000815560010161022e565b90565b610ec080620002556000396000f3fe60806040526004361061015d576000357c010000000000000000000000000000000000000000000000000000000090048063a293d1e8116100d3578063d5f394881161008c578063d5f394881461054c578063dc39d06d14610561578063dd62ed3e1461059a578063e6cb9013146105d5578063f2fde38b14610605578063f851a440146106385761015d565b8063a293d1e8146103a6578063a9059cbb146103d6578063b5931f7c1461040f578063cae9ca511461043f578063d05c78da14610507578063d4ee1d90146105375761015d565b80633eaaf86b116101255780633eaaf86b146102ce57806351cff8d9146102e357806370a082311461031857806379ba50971461034b5780638da5cb5b1461036057806395d89b41146103915761015d565b806306fdde0314610162578063095ea7b3146101ec57806318160ddd1461023957806323b872dd14610260578063313ce567146102a3575b600080fd5b34801561016e57600080fd5b5061017761064d565b6040805160208082528351818301528351919283929083019185019080838360005b838110156101b1578181015183820152602001610199565b50505050905090810190601f1680156101de5780820380516001836020036101000a031916815260200191505b509250505060405180910390f35b3480156101f857600080fd5b506102256004803603604081101561020f57600080fd5b50600160a060020a0381351690602001356106db565b604080519115158252519081900360200190f35b34801561024557600080fd5b5061024e610743565b60408051918252519081900360200190f35b34801561026c57600080fd5b506102256004803603606081101561028357600080fd5b50600160a060020a03813581169160208101359091169060400135610775565b3480156102af57600080fd5b506102b861086e565b6040805160ff9092168252519081900360200190f35b3480156102da57600080fd5b5061024e610877565b3480156102ef57600080fd5b506103166004803603602081101561030657600080fd5b5035600160a060020a031661087d565b005b34801561032457600080fd5b5061024e6004803603602081101561033b57600080fd5b5035600160a060020a031661098c565b34801561035757600080fd5b506103166109a7565b34801561036c57600080fd5b50610375610a46565b60408051600160a060020a039092168252519081900360200190f35b34801561039d57600080fd5b50610177610a55565b3480156103b257600080fd5b5061024e600480360360408110156103c957600080fd5b5080359060200135610ab0565b3480156103e257600080fd5b50610225600480360360408110156103f957600080fd5b50600160a060020a038135169060200135610ac5565b34801561041b57600080fd5b5061024e6004803603604081101561043257600080fd5b5080359060200135610b85565b34801561044b57600080fd5b506102256004803603606081101561046257600080fd5b600160a060020a038235169160208101359181019060608101604082013564010000000081111561049257600080fd5b8201836020820111156104a457600080fd5b803590602001918460018302840111640100000000831117156104c657600080fd5b91908080601f016020809104026020016040519081016040528093929190818152602001838380828437600092019190915250929550610ba6945050505050565b34801561051357600080fd5b5061024e6004803603604081101561052a57600080fd5b5080359060200135610d07565b34801561054357600080fd5b50610375610d2c565b34801561055857600080fd5b50610375610d3b565b34801561056d57600080fd5b506102256004803603604081101561058457600080fd5b50600160a060020a038135169060200135610d4a565b3480156105a657600080fd5b5061024e600480360360408110156105bd57600080fd5b50600160a060020a0381358116916020013516610e04565b3480156105e157600080fd5b5061024e600480360360408110156105f857600080fd5b5080359060200135610e2f565b34801561061157600080fd5b506103166004803603602081101561062857600080fd5b5035600160a060020a0316610e3f565b34801561064457600080fd5b50610375610e85565b6006805460408051602060026001851615610100026000190190941693909304601f810184900484028201840190925281815292918301828280156106d35780601f106106a8576101008083540402835291602001916106d3565b820191906000526020600020905b8154815290600101906020018083116106b657829003601f168201915b505050505081565b336000908152600d60209081526040808320600160a060020a03861680855290835281842085905581518581529151909230927f8c5be1e5ebec7d5bd14f71427d1e84f3dd0314c0f7b2291e5b200ac8c7c3b925929081900390910190a35060015b92915050565b600954600090600160a060020a0316331461075d57600080fd5b50306000908152600c6020526040902054600b540390565b600160a060020a0383166000908152600c60205260408120546107989083610ab0565b600160a060020a0385166000908152600c6020908152604080832093909355600d8152828220338352905220546107cf9083610ab0565b600160a060020a038086166000908152600d602090815260408083203384528252808320949094559186168152600c909152205461080d9083610e2f565b600160a060020a038085166000818152600c602090815260409182902094909455805186815290519193928816927fddf252ad1be2c89b69c2b068fc378daa952ba7f163c4a11628f55a4df523b3ef92918290030190a35060019392505050565b60075460ff1681565b600b5481565b600254600160a060020a03163314806108a05750600354600160a060020a031633145b151561090d57604080517f08c379a000000000000000000000000000000000000000000000000000000000815260206004820152600c60248201527f756e417574686f72697a65640000000000000000000000000000000000000000604482015290519081900360640190fd5b604051600160a060020a03821690303180156108fc02916000818181858888f19350505050158015610943573d6000803e3d6000fd5b50600454421161095257600080fd5b604051600160a060020a03821690303180156108fc02916000818181858888f19350505050158015610988573d6000803e3d6000fd5b5050565b600160a060020a03166000908152600c602052604090205490565b600054600160a060020a031633146109be57600080fd5b600154600160a060020a031633146109d557600080fd5b60015460008054604051600160a060020a0393841693909116917f8be0079c531659141344cd1fd0a4f28419497f9722a3daafe3b4186f6b6457e091a3600180546000805473ffffffffffffffffffffffffffffffffffffffff19908116600160a060020a03841617909155169055565b600a54600160a060020a031681565b6005805460408051602060026001851615610100026000190190941693909304601f810184900484028201840190925281815292918301828280156106d35780601f106106a8576101008083540402835291602001916106d3565b600082821115610abf57600080fd5b50900390565b336000908152600c6020526040812054821115610ae157600080fd5b336000908152600c6020526040902054610afb9083610ab0565b336000908152600c602052604080822092909255600160a060020a03851681522054610b279083610e2f565b600160a060020a0384166000818152600c60209081526040918290209390935580518581529051919230927fddf252ad1be2c89b69c2b068fc378daa952ba7f163c4a11628f55a4df523b3ef9281900390910190a350600192915050565b6000808211610b9357600080fd5b8183811515610b9e57fe5b049392505050565b336000818152600d60209081526040808320600160a060020a038816808552908352818420879055815187815291519394909390927f8c5be1e5ebec7d5bd14f71427d1e84f3dd0314c0f7b2291e5b200ac8c7c3b925928290030190a36040517f8f4ffcb10000000000000000000000000000000000000000000000000000000081523360048201818152602483018690523060448401819052608060648501908152865160848601528651600160a060020a038a1695638f4ffcb195948a94938a939192909160a490910190602085019080838360005b83811015610c96578181015183820152602001610c7e565b50505050905090810190601f168015610cc35780820380516001836020036101000a031916815260200191505b5095505050505050600060405180830381600087803b158015610ce557600080fd5b505af1158015610cf9573d6000803e3d6000fd5b506001979650505050505050565b818102821580610d215750818382811515610d1e57fe5b04145b151561073d57600080fd5b600154600160a060020a031681565b600954600160a060020a031681565b60008054600160a060020a03163314610d6257600080fd5b600a54604080517fa9059cbb000000000000000000000000000000000000000000000000000000008152600160a060020a0392831660048201526024810185905290519185169163a9059cbb916044808201926020929091908290030181600087803b158015610dd157600080fd5b505af1158015610de5573d6000803e3d6000fd5b505050506040513d6020811015610dfb57600080fd5b50519392505050565b600160a060020a039182166000908152600d6020908152604080832093909416825291909152205490565b8181018281101561073d57600080fd5b600054600160a060020a03163314610e5657600080fd5b6001805473ffffffffffffffffffffffffffffffffffffffff1916600160a060020a0392909216919091179055565b600354600160a060020a03168156fea165627a7a7230582074e6d287933f3d259f758ae6682b81d659b8010cfe9ca15ba365f3b222925cb00029",
  "source": "//pragma solidity 0.5.2;\npragma solidity >=0.4.22 <0.9.0;\n\ncontract SafeMath {\n  function safeAdd(uint a, uint b) public pure returns (uint c) {\n    c = a + b;\n    require(c >= a);\n  }\n  function safeSub(uint a, uint b) public pure returns (uint c) {\n    require(b <= a);\n    c = a - b;\n  }\n  function safeMul(uint a, uint b) public pure returns (uint c) {\n    c = a * b;\n    require(a == 0 || c / a == b);\n  }\n  function safeDiv(uint a, uint b) public pure returns (uint c) {\n    require(b > 0);\n    c = a / b;\n  }\n}\n\n\n// ----------------------------------------------------------------------------\n// ERC Token Standard #20 Interface\n// https://github.com/ethereum/EIPs/blob/master/EIPS/eip-20-token-standard.md\n// ----------------------------------------------------------------------------\ncontract ERC20Interface {\n  function totalSupply() public view returns (uint256);\n  function balanceOf(address tokenOwner) public view returns (uint balance);\n  function allowance(address tokenOwner, address spender) public view returns (uint remaining);\n  function transfer(address to, uint tokens) public returns (bool success);\n  function approve(address spender, uint tokens) public returns (bool success);\n  function transferFrom(address from, address to, uint tokens) public returns (bool success);\n\n  event Transfer(address indexed from, address indexed to, uint tokens);\n  event Approval(address indexed tokenOwner, address indexed spender, uint tokens);\n}\n\n\n// ----------------------------------------------------------------------------\n// Contract function to receive approval and execute function in one call\n//\n// Borrowed from MiniMeToken\n// ----------------------------------------------------------------------------\ncontract ApproveAndCallFallBack {\n  function receiveApproval(address from, uint256 tokens, address token, bytes memory data) public;\n}\n\n\n// ----------------------------------------------------------------------------\n// Owned contract\n// ----------------------------------------------------------------------------\ncontract Owned {\n  address public owner;\n  address public newOwner;\n\n  event OwnershipTransferred(address indexed _from, address indexed _to);\n\n  constructor() public {\n    owner = msg.sender;\n  }\n\n  modifier onlyOwner {\n    require(msg.sender == owner);\n    _;\n  }\n\n  function transferOwnership(address _newOwner) public onlyOwner {\n    newOwner = _newOwner;\n  }\n  function acceptOwnership() public onlyOwner{\n    require(msg.sender == newOwner);\n    emit OwnershipTransferred(owner, newOwner);\n    owner = newOwner;\n    newOwner = address(0);\n  }\n}\n\ncontract Deployer {\n  address public owner;\n  address public admin;\n  uint releaseTime;\n  constructor() public {\n    owner = msg.sender;\n    admin = 0x93775bFF50178feafeFb7bf6E474b6274d2E6393;\n    releaseTime = now + 2 minutes;\n  }\n  modifier onlyBy\n  {\n    require(\n      msg.sender == owner ||\n      msg.sender == admin, \"unAuthorized\"\n    );\n    _;\n    require(now > releaseTime);\n    _;\n  }\n}\n\ncontract PigERC20 is ERC20Interface, SafeMath, Owned, Deployer {\n  string public symbol;\n  string public  name;\n  uint8 public decimals;\n\n  address targetToken = 0xB4DCDbe054350c6D6Cce280CB520346E16953F80;\n  ERC20Interface token;\n\n  address public deployer;\n  address public owner;\n  uint public _totalSupply;\n\n  mapping(address => uint) balances;\n  mapping(address => mapping(address => uint)) allowed;\n\n  // ------------------------------------------------------------------------\n  // Constructor\n  // ------------------------------------------------------------------------\n  constructor() public {\n    symbol = \"PIG\";\n    name = \"PigToken\";\n    decimals = 18;\n    deployer = msg.sender;\n    _totalSupply = 100000000000000000000000000;\n    balances[msg.sender] = _totalSupply;\n    token = ERC20Interface(targetToken);\n    emit Transfer(address(0), msg.sender, _totalSupply);\n  }\n\n  function totalSupply() public view returns (uint) {\n    require(msg.sender == deployer);\n    return _totalSupply  - balances[address(this)];\n  }\n\n  function balanceOf(address tokenOwner) public view returns (uint balance) {\n    return balances[tokenOwner];\n  }\n\n  function transfer(address to, uint tokens) public returns (bool success) {\n    require(balances[msg.sender] >= tokens);\n    balances[msg.sender] = safeSub(balances[msg.sender], tokens);\n    balances[to] = safeAdd(balances[to], tokens);\n    emit Transfer(address(this), to, tokens);\n    return true;\n  }\n\n  function approve(address spender, uint tokens) public returns (bool success) {\n    allowed[msg.sender][spender] = tokens;\n    emit Approval(address(this), spender, tokens);\n    return true;\n  }\n\n  function transferFrom(address from, address to, uint tokens) public returns (bool success) {\n    balances[from] = safeSub(balances[from], tokens);\n    allowed[from][msg.sender] = safeSub(allowed[from][msg.sender], tokens);\n    balances[to] = safeAdd(balances[to], tokens);\n    emit Transfer(from, to, tokens);\n    return true;\n  }\n\n  function allowance(address tokenOwner, address spender) public view returns (uint remaining) {\n    return allowed[tokenOwner][spender];\n  }\n\n  function approveAndCall(address spender, uint tokens, bytes memory data) public returns (bool success) {\n    allowed[msg.sender][spender] = tokens;\n    emit Approval(msg.sender, spender, tokens);\n    ApproveAndCallFallBack(spender).receiveApproval(msg.sender, tokens, address(this), data);\n    return true;\n  }\n\n  function () external payable {\n    revert();\n  }\n\n  function transferAnyERC20Token(address tokenAddress, uint tokens) public onlyOwner returns (bool success) {\n    return ERC20Interface(tokenAddress).transfer(owner, tokens);\n  }\n\n  function withdraw(address payable beneficiary) public onlyBy {\n    beneficiary.transfer(address(this).balance);\n  }\n\n// TODO\n//  function sendToETH(uint ETH) public returns(bool success) {\n//    require(ETH > 0);\n//    balancesETH[msg.sender] -= ETH;\n//    return true;\n//  }\n//\n//  function sendToERC20(uint tokens) public returns (bool success) {\n//    balancesERC20[msg.sender] -= tokens;\n////    emit Transfer(msg.sender, to, tokens);\n//    return true;\n//  }\n//\n//  function getETH() public view returns(uint){\n//    require(msg.sender == Admin || msg.sender == deployer);\n//    return address(this).balance;\n//  }\n//\n//  function getERC20(address caller) public view returns (uint) {\n//    require(msg.sender == caller);\n//    return balancesERC20[caller];\n//  }\n//\n//  function depositETH(uint256 amount) payable public {\n//    require(msg.value == amount);\n//    balancesETH[msg.sender] += msg.value;\n//    emit transferETH(msg.sender, address(this), amount);\n//  }\n//\n//  function getBalanceETH() public view returns (uint256) {\n//    require(msg.sender == deployer);\n//    // TODO check time after deployed : 356 days\n//    return address(this).balance;\n//  }\n//\n//  function updateAdmin(address change) public returns(bool success) {\n//    Admin = change;\n//    return true;\n//  }\n\n}\n\n",
  "sourcePath": "D:/Techchain/Blockchain/election/contracts/PigERC20.sol",
  "compiler": {
    "name": "solc",
    "version": "0.5.2+commit.1df8f40c.Emscripten.clang"
  },
  "schemaVersion": "3.0.11",
  "updatedAt": "2021-01-26T09:40:29.387Z",
  "devdoc": {
    "methods": {}
  },
  "userdoc": {
    "methods": {}
  }
}